{
  "_format": "hh-sol-artifact-1",
  "contractName": "NotaryService",
  "sourceName": "contracts/Trust.sol",
  "abi": [
    {
      "inputs": [
        {
          "internalType": "contract IERC20",
          "name": "_filecoin",
          "type": "address"
        }
      ],
      "stateMutability": "nonpayable",
      "type": "constructor"
    },
    {
      "inputs": [],
      "name": "getNotarizedDocuments",
      "outputs": [
        {
          "internalType": "string[]",
          "name": "cids",
          "type": "string[]"
        },
        {
          "internalType": "uint256[]",
          "name": "timestamps",
          "type": "uint256[]"
        }
      ],
      "stateMutability": "view",
      "type": "function"
    },
    {
      "inputs": [
        {
          "internalType": "string",
          "name": "cid",
          "type": "string"
        }
      ],
      "name": "notarizeDocument",
      "outputs": [],
      "stateMutability": "nonpayable",
      "type": "function"
    },
    {
      "inputs": [
        {
          "internalType": "string",
          "name": "",
          "type": "string"
        }
      ],
      "name": "notarizedCIDs",
      "outputs": [
        {
          "internalType": "bool",
          "name": "",
          "type": "bool"
        }
      ],
      "stateMutability": "view",
      "type": "function"
    },
    {
      "inputs": [
        {
          "internalType": "address",
          "name": "",
          "type": "address"
        },
        {
          "internalType": "uint256",
          "name": "",
          "type": "uint256"
        }
      ],
      "name": "notarizedDocuments",
      "outputs": [
        {
          "internalType": "string",
          "name": "cid",
          "type": "string"
        },
        {
          "internalType": "uint256",
          "name": "timestamp",
          "type": "uint256"
        },
        {
          "internalType": "bool",
          "name": "exists",
          "type": "bool"
        }
      ],
      "stateMutability": "view",
      "type": "function"
    },
    {
      "inputs": [],
      "name": "payFee",
      "outputs": [],
      "stateMutability": "nonpayable",
      "type": "function"
    }
  ],
  "bytecode": "0x60806040523480156200001157600080fd5b50604051620016ce380380620016ce83398181016040528101906200003791906200014d565b33600260006101000a81548173ffffffffffffffffffffffffffffffffffffffff021916908373ffffffffffffffffffffffffffffffffffffffff160217905550670de0b6b3a764000060048190555080600360006101000a81548173ffffffffffffffffffffffffffffffffffffffff021916908373ffffffffffffffffffffffffffffffffffffffff160217905550506200017f565b600080fd5b600073ffffffffffffffffffffffffffffffffffffffff82169050919050565b60006200010182620000d4565b9050919050565b60006200011582620000f4565b9050919050565b620001278162000108565b81146200013357600080fd5b50565b60008151905062000147816200011c565b92915050565b600060208284031215620001665762000165620000cf565b5b6000620001768482850162000136565b91505092915050565b61153f806200018f6000396000f3fe608060405234801561001057600080fd5b50600436106100575760003560e01c8063296102521461005c5780634a2cc1e7146100665780636a33bf87146100985780639637f2d6146100b4578063fe83beba146100d3575b600080fd5b610064610103565b005b610080600480360381019061007b91906109ab565b61038e565b60405161008f93929190610aa5565b60405180910390f35b6100b260048036038101906100ad9190610c18565b61046a565b005b6100bc6105d6565b6040516100ca929190610e2b565b60405180910390f35b6100ed60048036038101906100e89190610c18565b6108cd565b6040516100fa9190610e62565b60405180910390f35b600454600360009054906101000a900473ffffffffffffffffffffffffffffffffffffffff1673ffffffffffffffffffffffffffffffffffffffff166370a08231336040518263ffffffff1660e01b81526004016101619190610e8c565b602060405180830381865afa15801561017e573d6000803e3d6000fd5b505050506040513d601f19601f820116820180604052508101906101a29190610ebc565b10156101e3576040517f08c379a00000000000000000000000000000000000000000000000000000000081526004016101da90610f5b565b60405180910390fd5b600454600360009054906101000a900473ffffffffffffffffffffffffffffffffffffffff1673ffffffffffffffffffffffffffffffffffffffff1663dd62ed3e33306040518363ffffffff1660e01b8152600401610243929190610f7b565b602060405180830381865afa158015610260573d6000803e3d6000fd5b505050506040513d601f19601f820116820180604052508101906102849190610ebc565b10156102c5576040517f08c379a00000000000000000000000000000000000000000000000000000000081526004016102bc90610ff0565b60405180910390fd5b600360009054906101000a900473ffffffffffffffffffffffffffffffffffffffff1673ffffffffffffffffffffffffffffffffffffffff166323b872dd33600260009054906101000a900473ffffffffffffffffffffffffffffffffffffffff166004546040518463ffffffff1660e01b815260040161034893929190611010565b6020604051808303816000875af1158015610367573d6000803e3d6000fd5b505050506040513d601f19601f8201168201806040525081019061038b9190611073565b50565b600060205281600052604060002081815481106103aa57600080fd5b9060005260206000209060030201600091509150508060000180546103ce906110cf565b80601f01602080910402602001604051908101604052809291908181526020018280546103fa906110cf565b80156104475780601f1061041c57610100808354040283529160200191610447565b820191906000526020600020905b81548152906001019060200180831161042a57829003601f168201915b5050505050908060010154908060020160009054906101000a900460ff16905083565b60018160405161047a919061113c565b908152602001604051809103902060009054906101000a900460ff16156104d6576040517f08c379a00000000000000000000000000000000000000000000000000000000081526004016104cd906111c5565b60405180910390fd5b600180826040516104e7919061113c565b908152602001604051809103902060006101000a81548160ff0219169083151502179055506000803373ffffffffffffffffffffffffffffffffffffffff1673ffffffffffffffffffffffffffffffffffffffff168152602001908152602001600020604051806060016040528083815260200142815260200160011515815250908060018154018082558091505060019003906000526020600020906003020160009091909190915060008201518160000190816105a69190611391565b506020820151816001015560408201518160020160006101000a81548160ff021916908315150217905550505050565b6060806000806000600260009054906101000a900473ffffffffffffffffffffffffffffffffffffffff1673ffffffffffffffffffffffffffffffffffffffff1673ffffffffffffffffffffffffffffffffffffffff1681526020019081526020016000208054905090508067ffffffffffffffff81111561065b5761065a610aed565b5b60405190808252806020026020018201604052801561068e57816020015b60608152602001906001900390816106795790505b5092508067ffffffffffffffff8111156106ab576106aa610aed565b5b6040519080825280602002602001820160405280156106d95781602001602082028036833780820191505090505b50915060005b818110156108c757600080600260009054906101000a900473ffffffffffffffffffffffffffffffffffffffff1673ffffffffffffffffffffffffffffffffffffffff1673ffffffffffffffffffffffffffffffffffffffff168152602001908152602001600020818154811061075957610758611463565b5b90600052602060002090600302016000018054610775906110cf565b80601f01602080910402602001604051908101604052809291908181526020018280546107a1906110cf565b80156107ee5780601f106107c3576101008083540402835291602001916107ee565b820191906000526020600020905b8154815290600101906020018083116107d157829003601f168201915b505050505084828151811061080657610805611463565b5b6020026020010181905250600080600260009054906101000a900473ffffffffffffffffffffffffffffffffffffffff1673ffffffffffffffffffffffffffffffffffffffff1673ffffffffffffffffffffffffffffffffffffffff168152602001908152602001600020818154811061088357610882611463565b5b9060005260206000209060030201600101548382815181106108a8576108a7611463565b5b60200260200101818152505080806108bf906114c1565b9150506106df565b50509091565b6001818051602081018201805184825260208301602085012081835280955050505050506000915054906101000a900460ff1681565b6000604051905090565b600080fd5b600080fd5b600073ffffffffffffffffffffffffffffffffffffffff82169050919050565b600061094282610917565b9050919050565b61095281610937565b811461095d57600080fd5b50565b60008135905061096f81610949565b92915050565b6000819050919050565b61098881610975565b811461099357600080fd5b50565b6000813590506109a58161097f565b92915050565b600080604083850312156109c2576109c161090d565b5b60006109d085828601610960565b92505060206109e185828601610996565b9150509250929050565b600081519050919050565b600082825260208201905092915050565b60005b83811015610a25578082015181840152602081019050610a0a565b60008484015250505050565b6000601f19601f8301169050919050565b6000610a4d826109eb565b610a5781856109f6565b9350610a67818560208601610a07565b610a7081610a31565b840191505092915050565b610a8481610975565b82525050565b60008115159050919050565b610a9f81610a8a565b82525050565b60006060820190508181036000830152610abf8186610a42565b9050610ace6020830185610a7b565b610adb6040830184610a96565b949350505050565b600080fd5b600080fd5b7f4e487b7100000000000000000000000000000000000000000000000000000000600052604160045260246000fd5b610b2582610a31565b810181811067ffffffffffffffff82111715610b4457610b43610aed565b5b80604052505050565b6000610b57610903565b9050610b638282610b1c565b919050565b600067ffffffffffffffff821115610b8357610b82610aed565b5b610b8c82610a31565b9050602081019050919050565b82818337600083830152505050565b6000610bbb610bb684610b68565b610b4d565b905082815260208101848484011115610bd757610bd6610ae8565b5b610be2848285610b99565b509392505050565b600082601f830112610bff57610bfe610ae3565b5b8135610c0f848260208601610ba8565b91505092915050565b600060208284031215610c2e57610c2d61090d565b5b600082013567ffffffffffffffff811115610c4c57610c4b610912565b5b610c5884828501610bea565b91505092915050565b600081519050919050565b600082825260208201905092915050565b6000819050602082019050919050565b600082825260208201905092915050565b6000610ca9826109eb565b610cb38185610c8d565b9350610cc3818560208601610a07565b610ccc81610a31565b840191505092915050565b6000610ce38383610c9e565b905092915050565b6000602082019050919050565b6000610d0382610c61565b610d0d8185610c6c565b935083602082028501610d1f85610c7d565b8060005b85811015610d5b5784840389528151610d3c8582610cd7565b9450610d4783610ceb565b925060208a01995050600181019050610d23565b50829750879550505050505092915050565b600081519050919050565b600082825260208201905092915050565b6000819050602082019050919050565b610da281610975565b82525050565b6000610db48383610d99565b60208301905092915050565b6000602082019050919050565b6000610dd882610d6d565b610de28185610d78565b9350610ded83610d89565b8060005b83811015610e1e578151610e058882610da8565b9750610e1083610dc0565b925050600181019050610df1565b5085935050505092915050565b60006040820190508181036000830152610e458185610cf8565b90508181036020830152610e598184610dcd565b90509392505050565b6000602082019050610e776000830184610a96565b92915050565b610e8681610937565b82525050565b6000602082019050610ea16000830184610e7d565b92915050565b600081519050610eb68161097f565b92915050565b600060208284031215610ed257610ed161090d565b5b6000610ee084828501610ea7565b91505092915050565b7f4e6f7420656e6f7567682046696c65636f696e20746f2070617920746865206660008201527f65652e0000000000000000000000000000000000000000000000000000000000602082015250565b6000610f456023836109f6565b9150610f5082610ee9565b604082019050919050565b60006020820190508181036000830152610f7481610f38565b9050919050565b6000604082019050610f906000830185610e7d565b610f9d6020830184610e7d565b9392505050565b7f4e6f7420656e6f7567682046696c65636f696e20616c6c6f77616e63652e0000600082015250565b6000610fda601e836109f6565b9150610fe582610fa4565b602082019050919050565b6000602082019050818103600083015261100981610fcd565b9050919050565b60006060820190506110256000830186610e7d565b6110326020830185610e7d565b61103f6040830184610a7b565b949350505050565b61105081610a8a565b811461105b57600080fd5b50565b60008151905061106d81611047565b92915050565b6000602082840312156110895761108861090d565b5b60006110978482850161105e565b91505092915050565b7f4e487b7100000000000000000000000000000000000000000000000000000000600052602260045260246000fd5b600060028204905060018216806110e757607f821691505b6020821081036110fa576110f96110a0565b5b50919050565b600081905092915050565b6000611116826109eb565b6111208185611100565b9350611130818560208601610a07565b80840191505092915050565b6000611148828461110b565b915081905092915050565b7f5468697320646f63756d656e742068617320616c7265616479206265656e206e60008201527f6f746172697a65642e0000000000000000000000000000000000000000000000602082015250565b60006111af6029836109f6565b91506111ba82611153565b604082019050919050565b600060208201905081810360008301526111de816111a2565b9050919050565b60008190508160005260206000209050919050565b60006020601f8301049050919050565b600082821b905092915050565b6000600883026112477fffffffffffffffffffffffffffffffffffffffffffffffffffffffffffffffff8261120a565b611251868361120a565b95508019841693508086168417925050509392505050565b6000819050919050565b600061128e61128961128484610975565b611269565b610975565b9050919050565b6000819050919050565b6112a883611273565b6112bc6112b482611295565b848454611217565b825550505050565b600090565b6112d16112c4565b6112dc81848461129f565b505050565b5b81811015611300576112f56000826112c9565b6001810190506112e2565b5050565b601f82111561134557611316816111e5565b61131f846111fa565b8101602085101561132e578190505b61134261133a856111fa565b8301826112e1565b50505b505050565b600082821c905092915050565b60006113686000198460080261134a565b1980831691505092915050565b60006113818383611357565b9150826002028217905092915050565b61139a826109eb565b67ffffffffffffffff8111156113b3576113b2610aed565b5b6113bd82546110cf565b6113c8828285611304565b600060209050601f8311600181146113fb57600084156113e9578287015190505b6113f38582611375565b86555061145b565b601f198416611409866111e5565b60005b828110156114315784890151825560018201915060208501945060208101905061140c565b8683101561144e578489015161144a601f891682611357565b8355505b6001600288020188555050505b505050505050565b7f4e487b7100000000000000000000000000000000000000000000000000000000600052603260045260246000fd5b7f4e487b7100000000000000000000000000000000000000000000000000000000600052601160045260246000fd5b60006114cc82610975565b91507fffffffffffffffffffffffffffffffffffffffffffffffffffffffffffffffff82036114fe576114fd611492565b5b60018201905091905056fea2646970667358221220391317c975f7132ac3b7fa8184a5a43f03ff44292c4b75b9d7bf623e94dc4b0464736f6c63430008110033",
  "linkReferences": {},
  "deployedLinkReferences": {}
}